{
  "_format": "hh-sol-artifact-1",
  "contractName": "NFTsRealm",
  "sourceName": "contracts/NFTsRealm.sol",
  "abi": [
    {
      "inputs": [],
      "stateMutability": "nonpayable",
      "type": "constructor"
    },
    {
      "anonymous": false,
      "inputs": [
        {
          "indexed": true,
          "internalType": "address",
          "name": "owner",
          "type": "address"
        },
        {
          "indexed": true,
          "internalType": "address",
          "name": "approved",
          "type": "address"
        },
        {
          "indexed": true,
          "internalType": "uint256",
          "name": "tokenId",
          "type": "uint256"
        }
      ],
      "name": "Approval",
      "type": "event"
    },
    {
      "anonymous": false,
      "inputs": [
        {
          "indexed": true,
          "internalType": "address",
          "name": "owner",
          "type": "address"
        },
        {
          "indexed": true,
          "internalType": "address",
          "name": "operator",
          "type": "address"
        },
        {
          "indexed": false,
          "internalType": "bool",
          "name": "approved",
          "type": "bool"
        }
      ],
      "name": "ApprovalForAll",
      "type": "event"
    },
    {
      "anonymous": false,
      "inputs": [
        {
          "indexed": true,
          "internalType": "address",
          "name": "previousOwner",
          "type": "address"
        },
        {
          "indexed": true,
          "internalType": "address",
          "name": "newOwner",
          "type": "address"
        }
      ],
      "name": "OwnershipTransferred",
      "type": "event"
    },
    {
      "anonymous": false,
      "inputs": [
        {
          "indexed": true,
          "internalType": "address",
          "name": "from",
          "type": "address"
        },
        {
          "indexed": true,
          "internalType": "address",
          "name": "to",
          "type": "address"
        },
        {
          "indexed": true,
          "internalType": "uint256",
          "name": "tokenId",
          "type": "uint256"
        }
      ],
      "name": "Transfer",
      "type": "event"
    },
    {
      "inputs": [
        {
          "internalType": "address",
          "name": "to",
          "type": "address"
        },
        {
          "internalType": "uint256",
          "name": "tokenId",
          "type": "uint256"
        }
      ],
      "name": "approve",
      "outputs": [],
      "stateMutability": "nonpayable",
      "type": "function"
    },
    {
      "inputs": [
        {
          "internalType": "address",
          "name": "owner",
          "type": "address"
        }
      ],
      "name": "balanceOf",
      "outputs": [
        {
          "internalType": "uint256",
          "name": "",
          "type": "uint256"
        }
      ],
      "stateMutability": "view",
      "type": "function"
    },
    {
      "inputs": [
        {
          "internalType": "uint256",
          "name": "tokenId",
          "type": "uint256"
        }
      ],
      "name": "burn",
      "outputs": [],
      "stateMutability": "nonpayable",
      "type": "function"
    },
    {
      "inputs": [
        {
          "internalType": "uint256",
          "name": "tokenId",
          "type": "uint256"
        }
      ],
      "name": "getApproved",
      "outputs": [
        {
          "internalType": "address",
          "name": "",
          "type": "address"
        }
      ],
      "stateMutability": "view",
      "type": "function"
    },
    {
      "inputs": [
        {
          "internalType": "address",
          "name": "owner",
          "type": "address"
        },
        {
          "internalType": "address",
          "name": "operator",
          "type": "address"
        }
      ],
      "name": "isApprovedForAll",
      "outputs": [
        {
          "internalType": "bool",
          "name": "",
          "type": "bool"
        }
      ],
      "stateMutability": "view",
      "type": "function"
    },
    {
      "inputs": [
        {
          "internalType": "uint256",
          "name": "_id",
          "type": "uint256"
        },
        {
          "internalType": "address",
          "name": "_to",
          "type": "address"
        },
        {
          "internalType": "string",
          "name": "_tokenURI",
          "type": "string"
        }
      ],
      "name": "mint",
      "outputs": [],
      "stateMutability": "nonpayable",
      "type": "function"
    },
    {
      "inputs": [
        {
          "internalType": "uint256[]",
          "name": "_ids",
          "type": "uint256[]"
        },
        {
          "internalType": "address[]",
          "name": "_tos",
          "type": "address[]"
        },
        {
          "internalType": "string[]",
          "name": "_newTokenURIs",
          "type": "string[]"
        }
      ],
      "name": "mintAll",
      "outputs": [],
      "stateMutability": "nonpayable",
      "type": "function"
    },
    {
      "inputs": [],
      "name": "name",
      "outputs": [
        {
          "internalType": "string",
          "name": "",
          "type": "string"
        }
      ],
      "stateMutability": "view",
      "type": "function"
    },
    {
      "inputs": [],
      "name": "owner",
      "outputs": [
        {
          "internalType": "address",
          "name": "",
          "type": "address"
        }
      ],
      "stateMutability": "view",
      "type": "function"
    },
    {
      "inputs": [
        {
          "internalType": "uint256",
          "name": "tokenId",
          "type": "uint256"
        }
      ],
      "name": "ownerOf",
      "outputs": [
        {
          "internalType": "address",
          "name": "",
          "type": "address"
        }
      ],
      "stateMutability": "view",
      "type": "function"
    },
    {
      "inputs": [],
      "name": "renounceOwnership",
      "outputs": [],
      "stateMutability": "nonpayable",
      "type": "function"
    },
    {
      "inputs": [
        {
          "internalType": "address",
          "name": "from",
          "type": "address"
        },
        {
          "internalType": "address",
          "name": "to",
          "type": "address"
        },
        {
          "internalType": "uint256",
          "name": "tokenId",
          "type": "uint256"
        }
      ],
      "name": "safeTransferFrom",
      "outputs": [],
      "stateMutability": "nonpayable",
      "type": "function"
    },
    {
      "inputs": [
        {
          "internalType": "address",
          "name": "from",
          "type": "address"
        },
        {
          "internalType": "address",
          "name": "to",
          "type": "address"
        },
        {
          "internalType": "uint256",
          "name": "tokenId",
          "type": "uint256"
        },
        {
          "internalType": "bytes",
          "name": "_data",
          "type": "bytes"
        }
      ],
      "name": "safeTransferFrom",
      "outputs": [],
      "stateMutability": "nonpayable",
      "type": "function"
    },
    {
      "inputs": [
        {
          "internalType": "address",
          "name": "operator",
          "type": "address"
        },
        {
          "internalType": "bool",
          "name": "approved",
          "type": "bool"
        }
      ],
      "name": "setApprovalForAll",
      "outputs": [],
      "stateMutability": "nonpayable",
      "type": "function"
    },
    {
      "inputs": [
        {
          "internalType": "bytes4",
          "name": "interfaceId",
          "type": "bytes4"
        }
      ],
      "name": "supportsInterface",
      "outputs": [
        {
          "internalType": "bool",
          "name": "",
          "type": "bool"
        }
      ],
      "stateMutability": "view",
      "type": "function"
    },
    {
      "inputs": [],
      "name": "symbol",
      "outputs": [
        {
          "internalType": "string",
          "name": "",
          "type": "string"
        }
      ],
      "stateMutability": "view",
      "type": "function"
    },
    {
      "inputs": [
        {
          "internalType": "uint256",
          "name": "index",
          "type": "uint256"
        }
      ],
      "name": "tokenByIndex",
      "outputs": [
        {
          "internalType": "uint256",
          "name": "",
          "type": "uint256"
        }
      ],
      "stateMutability": "view",
      "type": "function"
    },
    {
      "inputs": [
        {
          "internalType": "address",
          "name": "owner",
          "type": "address"
        },
        {
          "internalType": "uint256",
          "name": "index",
          "type": "uint256"
        }
      ],
      "name": "tokenOfOwnerByIndex",
      "outputs": [
        {
          "internalType": "uint256",
          "name": "",
          "type": "uint256"
        }
      ],
      "stateMutability": "view",
      "type": "function"
    },
    {
      "inputs": [
        {
          "internalType": "uint256",
          "name": "tokenId",
          "type": "uint256"
        }
      ],
      "name": "tokenURI",
      "outputs": [
        {
          "internalType": "string",
          "name": "",
          "type": "string"
        }
      ],
      "stateMutability": "view",
      "type": "function"
    },
    {
      "inputs": [],
      "name": "totalSupply",
      "outputs": [
        {
          "internalType": "uint256",
          "name": "",
          "type": "uint256"
        }
      ],
      "stateMutability": "view",
      "type": "function"
    },
    {
      "inputs": [
        {
          "internalType": "address",
          "name": "from",
          "type": "address"
        },
        {
          "internalType": "address",
          "name": "to",
          "type": "address"
        },
        {
          "internalType": "uint256",
          "name": "tokenId",
          "type": "uint256"
        }
      ],
      "name": "transferFrom",
      "outputs": [],
      "stateMutability": "nonpayable",
      "type": "function"
    },
    {
      "inputs": [
        {
          "internalType": "address",
          "name": "newOwner",
          "type": "address"
        }
      ],
      "name": "transferOwnership",
      "outputs": [],
      "stateMutability": "nonpayable",
      "type": "function"
    }
  ],
  "bytecode": "0x60806040523480156200001157600080fd5b50604080518082018252600d81526c1391951cd499585b1b48139195609a1b6020808301918252835180850190945260088452671499585b1b53919560c21b9084015281519192916200006791600091620000f6565b5080516200007d906001906020840190620000f6565b5050506200009a62000094620000a060201b60201c565b620000a4565b620001d9565b3390565b600a80546001600160a01b038381166001600160a01b0319831681179093556040519116919082907f8be0079c531659141344cd1fd0a4f28419497f9722a3daafe3b4186f6b6457e090600090a35050565b82805462000104906200019c565b90600052602060002090601f01602090048101928262000128576000855562000173565b82601f106200014357805160ff191683800117855562000173565b8280016001018555821562000173579182015b828111156200017357825182559160200191906001019062000156565b506200018192915062000185565b5090565b5b8082111562000181576000815560010162000186565b600181811c90821680620001b157607f821691505b60208210811415620001d357634e487b7160e01b600052602260045260246000fd5b50919050565b6124f480620001e96000396000f3fe608060405234801561001057600080fd5b50600436106101825760003560e01c80636352211e116100d8578063a22cb4651161008c578063e67e402c11610066578063e67e402c14610308578063e985e9c51461031b578063f2fde38b1461035757610182565b8063a22cb465146102cf578063b88d4fde146102e2578063c87b56dd146102f557610182565b8063715018a6116100bd578063715018a6146102ae5780638da5cb5b146102b657806395d89b41146102c757610182565b80636352211e1461028857806370a082311461029b57610182565b806323b872dd1161013a57806342842e0e1161011457806342842e0e1461024f57806342966c68146102625780634f6ccce71461027557610182565b806323b872dd146102165780632f745c59146102295780633c98bd641461023c57610182565b8063081812fc1161016b578063081812fc146101c4578063095ea7b3146101ef57806318160ddd1461020457610182565b806301ffc9a71461018757806306fdde03146101af575b600080fd5b61019a6101953660046121f3565b61036a565b60405190151581526020015b60405180910390f35b6101b76103b0565b6040516101a69190612325565b6101d76101d236600461222b565b610442565b6040516001600160a01b0390911681526020016101a6565b6102026101fd3660046120ed565b6104dc565b005b6008545b6040519081526020016101a6565b610202610224366004611fff565b61060e565b6102086102373660046120ed565b610695565b61020261024a366004612116565b61073d565b61020261025d366004611fff565b6108ff565b61020261027036600461222b565b61091a565b61020861028336600461222b565b610926565b6101d761029636600461222b565b6109d8565b6102086102a9366004611fb3565b610a63565b610202610afd565b600a546001600160a01b03166101d7565b6101b7610b63565b6102026102dd3660046120b3565b610b72565b6102026102f036600461203a565b610c44565b6101b761030336600461222b565b610ccc565b610202610316366004612243565b610e60565b61019a610329366004611fcd565b6001600160a01b03918216600090815260056020908152604080832093909416825291909152205460ff1690565b610202610365366004611fb3565b610e74565b60006001600160e01b031982167f780e9d630000000000000000000000000000000000000000000000000000000014806103a857506103a882610f53565b90505b919050565b6060600080546103bf906123fc565b80601f01602080910402602001604051908101604052809291908181526020018280546103eb906123fc565b80156104385780601f1061040d57610100808354040283529160200191610438565b820191906000526020600020905b81548152906001019060200180831161041b57829003601f168201915b5050505050905090565b6000818152600260205260408120546001600160a01b03166104c05760405162461bcd60e51b815260206004820152602c60248201527f4552433732313a20617070726f76656420717565727920666f72206e6f6e657860448201526b34b9ba32b73a103a37b5b2b760a11b60648201526084015b60405180910390fd5b506000908152600460205260409020546001600160a01b031690565b60006104e7826109d8565b9050806001600160a01b0316836001600160a01b031614156105715760405162461bcd60e51b815260206004820152602160248201527f4552433732313a20617070726f76616c20746f2063757272656e74206f776e6560448201527f720000000000000000000000000000000000000000000000000000000000000060648201526084016104b7565b336001600160a01b038216148061058d575061058d8133610329565b6105ff5760405162461bcd60e51b815260206004820152603860248201527f4552433732313a20617070726f76652063616c6c6572206973206e6f74206f7760448201527f6e6572206e6f7220617070726f76656420666f7220616c6c000000000000000060648201526084016104b7565b6106098383610fee565b505050565b610618338261105c565b61068a5760405162461bcd60e51b815260206004820152603160248201527f4552433732313a207472616e736665722063616c6c6572206973206e6f74206f60448201527f776e6572206e6f7220617070726f76656400000000000000000000000000000060648201526084016104b7565b61060983838361114f565b60006106a083610a63565b82106107145760405162461bcd60e51b815260206004820152602b60248201527f455243373231456e756d657261626c653a206f776e657220696e646578206f7560448201527f74206f6620626f756e647300000000000000000000000000000000000000000060648201526084016104b7565b506001600160a01b03919091166000908152600660209081526040808320938352929052205490565b600a546001600160a01b031633146107975760405162461bcd60e51b815260206004820181905260248201527f4f776e61626c653a2063616c6c6572206973206e6f7420746865206f776e657260448201526064016104b7565b81518351146107f95760405162461bcd60e51b815260206004820152602860248201527f746f6b656e49447320616e642063726561746f727320617265206e6f74206d696044820152671cdb585d18da195960c21b60648201526084016104b7565b805183511461085b5760405162461bcd60e51b815260206004820152602860248201527f746f6b656e49447320616e6420746f6b656e55524920617265206e6f74206d696044820152671cdb585d18da195960c21b60648201526084016104b7565b60005b83518110156108f9576108e784828151811061088a57634e487b7160e01b600052603260045260246000fd5b60200260200101518483815181106108b257634e487b7160e01b600052603260045260246000fd5b60200260200101518484815181106108da57634e487b7160e01b600052603260045260246000fd5b6020026020010151610e60565b806108f181612437565b91505061085e565b50505050565b61060983838360405180602001604052806000815250610c44565b61092381611327565b50565b600061093160085490565b82106109a55760405162461bcd60e51b815260206004820152602c60248201527f455243373231456e756d657261626c653a20676c6f62616c20696e646578206f60448201527f7574206f6620626f756e6473000000000000000000000000000000000000000060648201526084016104b7565b600882815481106109c657634e487b7160e01b600052603260045260246000fd5b90600052602060002001549050919050565b6000818152600260205260408120546001600160a01b0316806103a85760405162461bcd60e51b815260206004820152602960248201527f4552433732313a206f776e657220717565727920666f72206e6f6e657869737460448201527f656e7420746f6b656e000000000000000000000000000000000000000000000060648201526084016104b7565b60006001600160a01b038216610ae15760405162461bcd60e51b815260206004820152602a60248201527f4552433732313a2062616c616e636520717565727920666f7220746865207a6560448201527f726f20616464726573730000000000000000000000000000000000000000000060648201526084016104b7565b506001600160a01b031660009081526003602052604090205490565b600a546001600160a01b03163314610b575760405162461bcd60e51b815260206004820181905260248201527f4f776e61626c653a2063616c6c6572206973206e6f7420746865206f776e657260448201526064016104b7565b610b616000611367565b565b6060600180546103bf906123fc565b6001600160a01b038216331415610bcb5760405162461bcd60e51b815260206004820152601960248201527f4552433732313a20617070726f766520746f2063616c6c65720000000000000060448201526064016104b7565b3360008181526005602090815260408083206001600160a01b0387168085529252909120805460ff1916841515179055906001600160a01b03167f17307eab39ab6107e8899845ad3d59bd9653f200f220920489ca2b5937696c3183604051610c38911515815260200190565b60405180910390a35050565b610c4e338361105c565b610cc05760405162461bcd60e51b815260206004820152603160248201527f4552433732313a207472616e736665722063616c6c6572206973206e6f74206f60448201527f776e6572206e6f7220617070726f76656400000000000000000000000000000060648201526084016104b7565b6108f9848484846113b9565b6000818152600260205260409020546060906001600160a01b0316610d595760405162461bcd60e51b815260206004820152603160248201527f45524337323155524953746f726167653a2055524920717565727920666f722060448201527f6e6f6e6578697374656e7420746f6b656e00000000000000000000000000000060648201526084016104b7565b6000828152600b602052604081208054610d72906123fc565b80601f0160208091040260200160405190810160405280929190818152602001828054610d9e906123fc565b8015610deb5780601f10610dc057610100808354040283529160200191610deb565b820191906000526020600020905b815481529060010190602001808311610dce57829003601f168201915b505050505090506000610e0960408051602081019091526000815290565b9050805160001415610e1d575090506103ab565b815115610e4f578082604051602001610e379291906122ba565b604051602081830303815290604052925050506103ab565b610e5884611437565b949350505050565b610e6a828461152d565b610609838261154b565b600a546001600160a01b03163314610ece5760405162461bcd60e51b815260206004820181905260248201527f4f776e61626c653a2063616c6c6572206973206e6f7420746865206f776e657260448201526064016104b7565b6001600160a01b038116610f4a5760405162461bcd60e51b815260206004820152602660248201527f4f776e61626c653a206e6577206f776e657220697320746865207a65726f206160448201527f646472657373000000000000000000000000000000000000000000000000000060648201526084016104b7565b61092381611367565b60006001600160e01b031982167f80ac58cd000000000000000000000000000000000000000000000000000000001480610fb657506001600160e01b031982167f5b5e139f00000000000000000000000000000000000000000000000000000000145b806103a857507f01ffc9a7000000000000000000000000000000000000000000000000000000006001600160e01b03198316146103a8565b600081815260046020526040902080546001600160a01b0319166001600160a01b0384169081179091558190611023826109d8565b6001600160a01b03167f8c5be1e5ebec7d5bd14f71427d1e84f3dd0314c0f7b2291e5b200ac8c7c3b92560405160405180910390a45050565b6000818152600260205260408120546001600160a01b03166110d55760405162461bcd60e51b815260206004820152602c60248201527f4552433732313a206f70657261746f7220717565727920666f72206e6f6e657860448201526b34b9ba32b73a103a37b5b2b760a11b60648201526084016104b7565b60006110e0836109d8565b9050806001600160a01b0316846001600160a01b0316148061111b5750836001600160a01b031661111084610442565b6001600160a01b0316145b80610e5857506001600160a01b0380821660009081526005602090815260408083209388168352929052205460ff16610e58565b826001600160a01b0316611162826109d8565b6001600160a01b0316146111de5760405162461bcd60e51b815260206004820152602960248201527f4552433732313a207472616e73666572206f6620746f6b656e2074686174206960448201527f73206e6f74206f776e000000000000000000000000000000000000000000000060648201526084016104b7565b6001600160a01b0382166112595760405162461bcd60e51b8152602060048201526024808201527f4552433732313a207472616e7366657220746f20746865207a65726f2061646460448201527f726573730000000000000000000000000000000000000000000000000000000060648201526084016104b7565b6112648383836115f4565b61126f600082610fee565b6001600160a01b03831660009081526003602052604081208054600192906112989084906123b9565b90915550506001600160a01b03821660009081526003602052604081208054600192906112c690849061238d565b909155505060008181526002602052604080822080546001600160a01b0319166001600160a01b0386811691821790925591518493918716917fddf252ad1be2c89b69c2b068fc378daa952ba7f163c4a11628f55a4df523b3ef91a4505050565b611330816116b1565b6000818152600b602052604090208054611349906123fc565b159050610923576000818152600b6020526040812061092391611d85565b600a80546001600160a01b038381166001600160a01b0319831681179093556040519116919082907f8be0079c531659141344cd1fd0a4f28419497f9722a3daafe3b4186f6b6457e090600090a35050565b6113c484848461114f565b6113d084848484611758565b6108f95760405162461bcd60e51b815260206004820152603260248201527f4552433732313a207472616e7366657220746f206e6f6e20455243373231526560448201527131b2b4bb32b91034b6b83632b6b2b73a32b960711b60648201526084016104b7565b6000818152600260205260409020546060906001600160a01b03166114c45760405162461bcd60e51b815260206004820152602f60248201527f4552433732314d657461646174613a2055524920717565727920666f72206e6f60448201527f6e6578697374656e7420746f6b656e000000000000000000000000000000000060648201526084016104b7565b60006114db60408051602081019091526000815290565b905060008151116114fb5760405180602001604052806000815250611526565b80611505846118b0565b6040516020016115169291906122ba565b6040516020818303038152906040525b9392505050565b6115478282604051806020016040528060008152506119ff565b5050565b6000828152600260205260409020546001600160a01b03166115d55760405162461bcd60e51b815260206004820152602e60248201527f45524337323155524953746f726167653a2055524920736574206f66206e6f6e60448201527f6578697374656e7420746f6b656e00000000000000000000000000000000000060648201526084016104b7565b6000828152600b60209081526040909120825161060992840190611dc1565b6001600160a01b03831661164f5761164a81600880546000838152600960205260408120829055600182018355919091527ff3f7a9fe364faab93b216da50a3214154f22a0a2b415b23a84c8169e8b636ee30155565b611672565b816001600160a01b0316836001600160a01b031614611672576116728382611a7d565b6001600160a01b03821661168e5761168981611b1a565b610609565b826001600160a01b0316826001600160a01b031614610609576106098282611bf3565b60006116bc826109d8565b90506116ca816000846115f4565b6116d5600083610fee565b6001600160a01b03811660009081526003602052604081208054600192906116fe9084906123b9565b909155505060008281526002602052604080822080546001600160a01b0319169055518391906001600160a01b038416907fddf252ad1be2c89b69c2b068fc378daa952ba7f163c4a11628f55a4df523b3ef908390a45050565b60006001600160a01b0384163b156118a557604051630a85bd0160e11b81526001600160a01b0385169063150b7a029061179c9033908990889088906004016122e9565b602060405180830381600087803b1580156117b657600080fd5b505af19250505080156117e6575060408051601f3d908101601f191682019092526117e39181019061220f565b60015b61188b573d808015611814576040519150601f19603f3d011682016040523d82523d6000602084013e611819565b606091505b5080516118835760405162461bcd60e51b815260206004820152603260248201527f4552433732313a207472616e7366657220746f206e6f6e20455243373231526560448201527131b2b4bb32b91034b6b83632b6b2b73a32b960711b60648201526084016104b7565b805181602001fd5b6001600160e01b031916630a85bd0160e11b149050610e58565b506001949350505050565b6060816118f1575060408051808201909152600181527f300000000000000000000000000000000000000000000000000000000000000060208201526103ab565b8160005b811561191b578061190581612437565b91506119149050600a836123a5565b91506118f5565b60008167ffffffffffffffff81111561194457634e487b7160e01b600052604160045260246000fd5b6040519080825280601f01601f19166020018201604052801561196e576020820181803683370190505b5090505b8415610e58576119836001836123b9565b9150611990600a86612452565b61199b90603061238d565b60f81b8183815181106119be57634e487b7160e01b600052603260045260246000fd5b60200101907effffffffffffffffffffffffffffffffffffffffffffffffffffffffffffff1916908160001a9053506119f8600a866123a5565b9450611972565b611a098383611c37565b611a166000848484611758565b6106095760405162461bcd60e51b815260206004820152603260248201527f4552433732313a207472616e7366657220746f206e6f6e20455243373231526560448201527131b2b4bb32b91034b6b83632b6b2b73a32b960711b60648201526084016104b7565b60006001611a8a84610a63565b611a9491906123b9565b600083815260076020526040902054909150808214611ae7576001600160a01b03841660009081526006602090815260408083208584528252808320548484528184208190558352600790915290208190555b5060009182526007602090815260408084208490556001600160a01b039094168352600681528383209183525290812055565b600854600090611b2c906001906123b9565b60008381526009602052604081205460088054939450909284908110611b6257634e487b7160e01b600052603260045260246000fd5b906000526020600020015490508060088381548110611b9157634e487b7160e01b600052603260045260246000fd5b6000918252602080832090910192909255828152600990915260408082208490558582528120556008805480611bd757634e487b7160e01b600052603160045260246000fd5b6001900381819060005260206000200160009055905550505050565b6000611bfe83610a63565b6001600160a01b039093166000908152600660209081526040808320868452825280832085905593825260079052919091209190915550565b6001600160a01b038216611c8d5760405162461bcd60e51b815260206004820181905260248201527f4552433732313a206d696e7420746f20746865207a65726f206164647265737360448201526064016104b7565b6000818152600260205260409020546001600160a01b031615611cf25760405162461bcd60e51b815260206004820152601c60248201527f4552433732313a20746f6b656e20616c7265616479206d696e7465640000000060448201526064016104b7565b611cfe600083836115f4565b6001600160a01b0382166000908152600360205260408120805460019290611d2790849061238d565b909155505060008181526002602052604080822080546001600160a01b0319166001600160a01b03861690811790915590518392907fddf252ad1be2c89b69c2b068fc378daa952ba7f163c4a11628f55a4df523b3ef908290a45050565b508054611d91906123fc565b6000825580601f10611da35750610923565b601f0160209004906000526020600020908101906109239190611e45565b828054611dcd906123fc565b90600052602060002090601f016020900481019282611def5760008555611e35565b82601f10611e0857805160ff1916838001178555611e35565b82800160010185558215611e35579182015b82811115611e35578251825591602001919060010190611e1a565b50611e41929150611e45565b5090565b5b80821115611e415760008155600101611e46565b600067ffffffffffffffff831115611e7457611e74612492565b611e87601f8401601f1916602001612338565b9050828152838383011115611e9b57600080fd5b828260208301376000602084830101529392505050565b80356001600160a01b03811681146103ab57600080fd5b600082601f830112611ed9578081fd5b81356020611eee611ee983612369565b612338565b80838252828201915082860187848660051b8901011115611f0d578586fd5b855b85811015611f3257611f2082611eb2565b84529284019290840190600101611f0f565b5090979650505050505050565b600082601f830112611f4f578081fd5b81356020611f5f611ee983612369565b82815281810190858301855b85811015611f3257611f82898684358b0101611f94565b84529284019290840190600101611f6b565b600082601f830112611fa4578081fd5b61152683833560208501611e5a565b600060208284031215611fc4578081fd5b61152682611eb2565b60008060408385031215611fdf578081fd5b611fe883611eb2565b9150611ff660208401611eb2565b90509250929050565b600080600060608486031215612013578081fd5b61201c84611eb2565b925061202a60208501611eb2565b9150604084013590509250925092565b6000806000806080858703121561204f578081fd5b61205885611eb2565b935061206660208601611eb2565b925060408501359150606085013567ffffffffffffffff811115612088578182fd5b8501601f81018713612098578182fd5b6120a787823560208401611e5a565b91505092959194509250565b600080604083850312156120c5578182fd5b6120ce83611eb2565b9150602083013580151581146120e2578182fd5b809150509250929050565b600080604083850312156120ff578182fd5b61210883611eb2565b946020939093013593505050565b60008060006060848603121561212a578283fd5b833567ffffffffffffffff80821115612141578485fd5b818601915086601f830112612154578485fd5b81356020612164611ee983612369565b8083825282820191508286018b848660051b890101111561218357898afd5b8996505b848710156121a5578035835260019690960195918301918301612187565b50975050870135925050808211156121bb578384fd5b6121c787838801611ec9565b935060408601359150808211156121dc578283fd5b506121e986828701611f3f565b9150509250925092565b600060208284031215612204578081fd5b8135611526816124a8565b600060208284031215612220578081fd5b8151611526816124a8565b60006020828403121561223c578081fd5b5035919050565b600080600060608486031215612257578081fd5b8335925061226760208501611eb2565b9150604084013567ffffffffffffffff811115612282578182fd5b6121e986828701611f94565b600081518084526122a68160208601602086016123d0565b601f01601f19169290920160200192915050565b600083516122cc8184602088016123d0565b8351908301906122e08183602088016123d0565b01949350505050565b60006001600160a01b0380871683528086166020840152508360408301526080606083015261231b608083018461228e565b9695505050505050565b600060208252611526602083018461228e565b604051601f8201601f1916810167ffffffffffffffff8111828210171561236157612361612492565b604052919050565b600067ffffffffffffffff82111561238357612383612492565b5060051b60200190565b600082198211156123a0576123a0612466565b500190565b6000826123b4576123b461247c565b500490565b6000828210156123cb576123cb612466565b500390565b60005b838110156123eb5781810151838201526020016123d3565b838111156108f95750506000910152565b600181811c9082168061241057607f821691505b6020821081141561243157634e487b7160e01b600052602260045260246000fd5b50919050565b600060001982141561244b5761244b612466565b5060010190565b6000826124615761246161247c565b500690565b634e487b7160e01b600052601160045260246000fd5b634e487b7160e01b600052601260045260246000fd5b634e487b7160e01b600052604160045260246000fd5b6001600160e01b03198116811461092357600080fdfea2646970667358221220788a587ad868fb6e5f71279364c1389d4efa5443f38b90f3986d69ebafe688c964736f6c63430008030033",
  "linkReferences": {},
  "deployedLinkReferences": {}
}