{
  "_format": "hh-sol-artifact-1",
  "contractName": "IMediaModified",
  "sourceName": "contracts/Marketplace.sol",
  "abi": [
    {
      "inputs": [],
      "name": "marketContract",
      "outputs": [
        {
          "internalType": "address",
          "name": "",
          "type": "address"
        }
      ],
      "stateMutability": "view",
      "type": "function"
    },
    {
      "inputs": [
        {
          "internalType": "uint256",
          "name": "",
          "type": "uint256"
        }
      ],
      "name": "tokenCreators",
      "outputs": [
        {
          "internalType": "address",
          "name": "",
          "type": "address"
        }
      ],
      "stateMutability": "view",
      "type": "function"
    }
  ],
  "bytecode": "0x608060405234801561001057600080fd5b5060ff8061001f6000396000f3fe6080604052348015600f57600080fd5b506004361060325760003560e01c8063a1794bcd146037578063e0fd045f14607f575b600080fd5b60015460569073ffffffffffffffffffffffffffffffffffffffff1681565b60405173ffffffffffffffffffffffffffffffffffffffff909116815260200160405180910390f35b6056608a36600460b2565b60006020819052908152604090205473ffffffffffffffffffffffffffffffffffffffff1681565b60006020828403121560c2578081fd5b503591905056fea2646970667358221220d01860987669c95cd767e3087a0927d82041141b90e1f2f2dc7e02ea29425d3164736f6c63430008030033",
  "linkReferences": {},
  "deployedLinkReferences": {}
}